:100000000C9473000C949E000C949E000C949E0023
:100010000C949E000C949E000C949E000C949E00E8
:100020000C949E000C949E000C949E000C949E00D8
:100030000C949E000C949E000C949E000C949E00C8
:100040000C949E000C949E000C949E000C949E00B8
:100050000C949E000C949E000C949E000C94F7014E
:100060000C949E000C94AE020C949E000C949E0086
:100070000C949E000C949E000C949E000C949E0088
:100080000C949E000C949E000C949E000C949E0078
:100090000C94EF020C949E000C949E000C949E0015
:1000A0000C949E000C949E000C949E000C949E0058
:1000B0000C949E000C949E000C949E000C949E0048
:1000C0000C949E000C949E000C949E000C943003A3
:1000D0000C949E000C949E000C9471030C949E0052
:1000E0000C949E00FA0411241FBECFEFD1E2DEBFB4
:1000F000CDBF12E0A0E0B2E0E0EFFEE000E00BBF19
:1001000002C007900D92A833B107D9F71BBE14E0C7
:10011000A8E3B2E001C01D92AE3AB107E1F710E0EA
:10012000C6EED0E004C02297FE010E947207C43ED2
:10013000D107C9F70E94F0010C9476070C940000D7
:10014000CF93DF9382E694E00E94AB04882309F406
:1001500018C182E694E00E94BF0490933902809314
:100160003802C197F1F482E694E060E072E00E9408
:10017000090660912C0270912D0282E694E00E94A3
:10018000D00682E694E069E072E00E94090682E609
:1001900094E04DE050E060E070E020E030E00E944C
:1001A000D8068091380290913902C297F1F482E624
:1001B00094E06EE072E00E94090660912C0270915A
:1001C0002D0282E694E00E94D00682E694E069E087
:1001D00072E00E94090682E694E04DE050E060E0A3
:1001E00070E020E030E00E94D806809138029091C3
:1001F0003902C39781F482E694E067E172E00E94DD
:10020000090682E694E04DE050E060E070E020E016
:1002100030E00E94D8068091380290913902C5974B
:1002200009F072C080E5809340020E943F029B016A
:10023000AC018091450290914602A0914702B09195
:100240004802281B390B4A0B5B0B20933C0230936E
:100250003D0240933E0250933F02C1E0D0E00CC00B
:10026000CA01B9012AE030E040E050E00E944107B5
:10027000C901DA019C01AD01CE0121962A30310578
:10028000410551056CF7209341023093420240939F
:10029000430250934402029690933B0280933A02A9
:1002A00082E694E06BE172E00E94090660913A02F6
:1002B00070913B0282E694E00E94D00682E694E0D0
:1002C0004DE050E060E070E020E030E00E94D806B1
:1002D00082E694E0609140020E94010640913C0257
:1002E00050913D0260913E0270913F0282E694E09F
:1002F0000E94A90682E694E04DE050E060E070E0E4
:1003000020E030E00E94D8068091380290913902B6
:100310008633910531F480912C0290912D02019643
:100320000BC08733910569F480912C0290912D02C6
:100330001816190634F5019790932D0280932C021C
:1003400020C0C897F1F482E694E060E272E00E9477
:10035000090660912C0270912D0282E694E00E94C1
:10036000D00682E694E069E072E00E94090682E627
:1003700094E04DE050E060E070E020E030E00E946A
:10038000D8068091380290913902C99751F40E94A1
:100390003F02609345027093460280934702909318
:1003A0004802DF91CF9108950F931F9302E614E066
:1003B000C80140E855E260E070E00E94B203C80165
:1003C00068E272E00E940906C8014DE050E060E07A
:1003D00070E020E030E00E94D8061F910F91089550
:1003E0000E944D020E94D4010E94A000FDCF1F92E6
:1003F0000F920FB60F9211242F933F938F939F93D9
:10040000AF93BF9380914D0290914E02A0914F0205
:10041000B0915002309151020196A11DB11D232FC0
:100420002D5F2D3720F02D570196A11DB11D209372
:10043000510280934D0290934E02A0934F02B093CD
:1004400050028091490290914A02A0914B02B091D2
:100450004C020196A11DB11D8093490290934A025E
:10046000A0934B02B0934C02BF91AF919F918F919B
:100470003F912F910F900FBE0F901F9018958FB73F
:10048000F89420914D0230914E0240914F025091CC
:1004900050028FBFB901CA010895789484B5826073
:1004A00084BD84B5816084BD85B5826085BD85B518
:1004B000816085BDEEE6F0E0808181608083E1E8C7
:1004C000F0E0808182608083808181608083E0E8C9
:1004D000F0E0808181608083E1EBF0E080818460E6
:1004E0008083E0EBF0E0808181608083E1E9F0E0EF
:1004F000808182608083808181608083E1EAF0E096
:10050000808182608083808181608083E1E2F1E08C
:10051000808182608083808181608083E0E9F0E077
:10052000808181608083E0EAF0E080818160808367
:10053000E0E2F1E0808181608083EAE7F0E08081A1
:1005400084608083808182608083808181608083F9
:100550008081806880831092C10008951F920F925D
:100560000FB60F920BB60F9211242F933F934F9318
:100570005F936F937F938F939F93AF93BF93EF930B
:10058000FF934091C600E091D202F091D302CF01D7
:10059000019660E870E00E940C079C018091D402F3
:1005A0009091D5022817390739F0EE5AFD4F408354
:1005B0003093D3022093D202FF91EF91BF91AF917C
:1005C0009F918F917F916F915F914F913F912F916B
:1005D0000F900BBE0F900FBE0F901F9018951F929B
:1005E0000F920FB60F920BB60F9211242F933F93D9
:1005F0004F935F936F937F938F939F93AF93BF932B
:10060000EF93FF934091CE00E0915603F091570392
:10061000CF01019660E870E00E940C079C01809178
:100620005803909159032817390739F0EA52FD4FC2
:1006300040833093570320935603FF91EF91BF916E
:10064000AF919F918F917F916F915F914F913F916A
:100650002F910F900BBE0F900FBE0F901F9018950B
:100660001F920F920FB60F920BB60F9211242F9379
:100670003F934F935F936F937F938F939F93AF932A
:10068000BF93EF93FF934091D600E091DA03F0918E
:10069000DB03CF01019660E870E00E940C079C012B
:1006A0008091DC039091DD032817390739F0E65A71
:1006B000FC4F40833093DB032093DA03FF91EF91EB
:1006C000BF91AF919F918F917F916F915F914F916A
:1006D0003F912F910F900BBE0F900FBE0F901F9068
:1006E00018951F920F920FB60F920BB60F9211240E
:1006F0002F933F934F935F936F937F938F939F932A
:10070000AF93BF93EF93FF9340913601E0915E0466
:10071000F0915F04CF01019660E870E00E940C0741
:100720009C0180916004909161042817390739F089
:10073000E252FC4F408330935F0420935E04FF91AC
:10074000EF91BF91AF919F918F917F916F915F9149
:100750004F913F912F910F900BBE0F900FBE0F90B6
:100760001F9018955F926F927F928F929F92AF9297
:10077000BF92CF92DF92EF92FF920F931F93CF938E
:10078000DF93EC013A014B01413482E458078FE0DA
:10079000680780E078070CF07FC060E874E88EE1BD
:1007A00090E0A40193010E94410721503040404055
:1007B0005040CA01B90122E030E040E050E00E9420
:1007C000410759016A01A601950120953095409590
:1007D000509594E0220F331F441F551F9A95D1F76F
:1007E00060E074E284EF90E00E944107CA01B90121
:1007F0002FEF30E040E050E00E94ED06A4019301AD
:100800000E944107C90181509F4F181619061CF418
:10081000522E5A9403C055245394521A60E079E042
:100820008DE390E0A40193010E94410721503040E4
:1008300040405040CA01B90122E030E040E050E0C1
:100840000E944107209530954095509583E0220FF6
:10085000331F441F551F8A95D1F760E074E284EF7F
:1008600090E00E944107CA01B9012FEF30E040E05B
:1008700050E00E94ED06A40193010E944107C901C6
:1008800081509F4F181619061CF4822F815002C008
:1008900081E0821B851500F5E885F98581E090E00F
:1008A0000A8802C0880F991F0A94E2F7808360E0EB
:1008B00079E08DE390E0A40193010E94410721506B
:1008C000304040405040CA01B90122E030E040E0F1
:1008D00050E00E94410704C0E885F9851082950127
:1008E000EC81FD813083EE81FF812083EA85FB85E9
:1008F000208141E050E0CA010E8402C0880F991F98
:100900000A94E2F7282B2083EA85FB852081CA011F
:100910000F8402C0880F991F0A94E2F7282B2083C6
:10092000EA85FB858081088802C0440F551F0A9420
:10093000E2F7842B8083DF91CF911F910F91FF907D
:10094000EF90DF90CF90BF90AF909F908F907F906F
:100950006F905F900895DC011296ED91FC911397D2
:10096000E058FF4F8191919180589F4F20813181B4
:10097000821B930B60E870E00E940C070895CF93F0
:10098000DF93DC011296ED91FC911397EF01CE57A6
:10099000DF4F48815981E058FF4F80819181E058B5
:1009A000F0408417950719F42FEF3FEF0CC0E40FC8
:1009B000F51F2081CA01019660E870E00E940C07D3
:1009C0009983888330E0C901DF91CF910895FC01BC
:1009D000A085B18521898C9190E0022E02C0959569
:1009E00087950A94E2F780FFF6CF0484F585E02D21
:1009F0006083089522E332E030936304209362041D
:100A000082E592E0909365048093640485EC90E025
:100A1000909367048093660484EC90E0909369045B
:100A20008093680480EC90E090936B0480936A0458
:100A300081EC90E090936D0480936C0486EC90E0E0
:100A400090936F0480936E04E4E0E093700473E08D
:100A50007093710467E06093720455E050937304DF
:100A600041E040937404309376042093750486ED3E
:100A700092E090937804809377048DEC90E09093CB
:100A80007A04809379048CEC90E090937C048093BA
:100A90007B0488EC90E090937E0480937D0489EC45
:100AA00090E09093800480937F048EEC90E090938C
:100AB000820480938104E0938304709384046093A0
:100AC00085045093860440938704309389042093CF
:100AD00088048AE593E090938B0480938A0485EDE3
:100AE00090E090938D0480938C0484ED90E090933B
:100AF0008F0480938E0480ED90E090939104809316
:100B0000900481ED90E0909393048093920486ED9D
:100B100090E09093950480939404E09396047093EE
:100B20009704609398045093990440939A043093E7
:100B30009C0420939B048EED93E090939E048093FD
:100B40009D0485E391E09093A00480939F0484E347
:100B500091E09093A2048093A10480E391E09093AC
:100B6000A4048093A30481E391E09093A60480936E
:100B7000A50486E391E09093A8048093A704E093F2
:100B8000A9047093AA046093AB045093AC044093FF
:100B9000AD0408950F931F93CF93DF938C01EB0166
:100BA00009C02196D801ED91FC910190F081E02DD2
:100BB000C801099568816623A1F7DF91CF911F9144
:100BC0000F910895EF92FF920F931F93CF93DF93AE
:100BD0008C017B01EA010CC0D7016D917D01D80128
:100BE000ED91FC910190F081E02DC80109952197CC
:100BF000209791F7DF91CF911F910F91FF90EF9088
:100C00000895DC01ED91FC910190F081E02D0995B2
:100C10000895DC01ED91FC910280F381E02D0995AE
:100C200008952F923F924F925F926F927F928F9290
:100C30009F92AF92BF92CF92DF92EF92FF920F936B
:100C40001F93DF93CF93CDB7DEB7A0970FB6F8947D
:100C5000DEBF0FBECDBF1C016A017B0141155105EE
:100C60006105710549F4DC01ED91FC910190F08181
:100C7000E02D60E3099554C0882499245401422E44
:100C800055246624772401E010E00C0F1D1F080D89
:100C9000191DC701B601A30192010E941F07F801A7
:100CA00060830894811C911CA11CB11CC701B60172
:100CB000A30192010E941F07C901DA016C017D01A5
:100CC000C114D104E104F104F1F681E0E82EF12C25
:100CD000EC0EFD1EE80CF91C3E010894611C711C11
:100CE000D501C4010197A109B1096C01C818D9083F
:100CF00014C0F601EE0DFF1D60816A3010F4605DD6
:100D000001C0695CD101ED91FC910190F081E02D71
:100D1000C10109950894E108F1086E147F0449F7B0
:100D2000A0960FB6F894DEBF0FBECDBFCF91DF9176
:100D30001F910F91FF90EF90DF90CF90BF90AF90F9
:100D40009F908F907F906F905F904F903F902F90EB
:100D50000895EF92FF920F931F93CF93DF93EC01CF
:100D60007A018B0177FF0FC0E881F9810190F08152
:100D7000E02D6DE2099510950095F094E094E11C4A
:100D8000F11C011D111DCE01B801A7012AE00E942E
:100D90001106DF91CF911F910F91FF90EF90089571
:100DA000AB01662757FD6095762F0E94A90608952E
:100DB000DC012115310541F4ED91FC910190F081A8
:100DC000E02D642F099508952A30310519F40E9409
:100DD000A90608950E9411060895629FD001739F8D
:100DE000F001829FE00DF11D649FE00DF11D929FC7
:100DF000F00D839FF00D749FF00D659FF00D992706
:100E0000729FB00DE11DF91F639FB00DE11DF91F29
:100E1000BD01CF011124089597FB092E07260AD0A2
:100E200077FD04D049D006D000201AF47095619562
:100E30007F4F0895F6F7909581959F4F0895A1E211
:100E40001A2EAA1BBB1BFD010DC0AA1FBB1FEE1F44
:100E5000FF1FA217B307E407F50720F0A21BB30B8F
:100E6000E40BF50B661F771F881F991F1A9469F70B
:100E700060957095809590959B01AC01BD01CF0167
:100E8000089597FB092E05260ED057FD04D0D7DF15
:100E90000AD0001C38F450954095309521953F4F6D
:100EA0004F4F5F4F0895F6F7909580957095619537
:100EB0007F4F8F4F9F4F0895AA1BBB1B51E107C067
:100EC000AA1FBB1FA617B70710F0A61BB70B881FDA
:100ED000991F5A95A9F780959095BC01CD01089569
:100EE000EE0FFF1F0590F491E02D0994F894FFCFC9
:100EF0004F5057204C4F4725002E54585400434C18
:100F000046204C4F47250044495200575246200086
:100F10005244204C4F472500495041000100000039
:080F20000000E704CA05E20528
:00000001FF
