:100000000C9474000C949F000C949F000C949F001F
:100010000C949F000C949F000C949F000C949F00E4
:100020000C949F000C949F000C949F000C949F00D4
:100030000C949F000C949F000C949F000C949F00C4
:100040000C949F000C949F000C949F000C949F00B4
:100050000C949F000C949F000C949F000C945906E4
:100060000C949F000C9402070C949F000C949F002A
:100070000C949F000C949F000C949F000C949F0084
:100080000C949F000C949F000C949F000C949F0074
:100090000C9443070C949F000C949F000C94EC026A
:1000A0000C949F000C949F000C949F000C949F0054
:1000B0000C949F000C949F000C949F000C949F0044
:1000C0000C949F000C949F000C949F000C94840748
:1000D0000C949F000C949F000C94C5070C949F00F7
:1000E0000C949F00E3014E0911241FBECFEFD1E213
:1000F000DEBFCDBF12E0A0E0B2E0ECE9F7E100E046
:100100000BBF02C007900D92AC35B107D9F71BBEEB
:1001100014E0ACE5B2E001C01D92A83EB107E1F7E2
:1001200010E0C8EED0E004C02297FE010E94C80B88
:10013000C43ED107C9F70E9452060C94CC0B0C9414
:1001400000000F931F93CF93DF93689F8001699FF7
:10015000100D789F100D1124C8010E94BD00EC0104
:10016000009729F060E070E0A8010E94BF01CE0175
:10017000DF91CF911F910F910895CF93DF93BC0131
:100180008230910510F462E070E0A091E604B09135
:10019000E704ED01E0E0F0E040E050E021C08881BC
:1001A00099818617970769F48A819B81309719F0A6
:1001B0009383828304C09093E7048093E604FE0156
:1001C00034C06817790738F44115510519F08417C0
:1001D000950708F4AC01FE018A819B819C01E9012D
:1001E0002097E9F641155105A9F1CA01861B970B25
:1001F000049708F4BA01E0E0F0E02AC08D919C91E8
:10020000119784179507F9F46417750781F412960E
:100210008D919C911397309719F09383828304C03A
:100220009093E7048093E604FD0132964CC0CA0126
:10023000861B970BFD01E80FF91F619371930297DD
:100240008D939C9340C0FD01828193819C01D901D3
:100250001097A1F68091E4049091E504892B41F474
:1002600080912E0290912F029093E5048093E404F4
:1002700040913002509131024115510541F44DB782
:100280005EB780912C0290912D02481B590B209152
:10029000E4043091E504CA01821B930B861797078B
:1002A00080F0AB014E5F5F4F8417950750F0420F0F
:1002B000531F5093E5044093E404F9016193719353
:1002C00002C0E0E0F0E0CF01DF91CF910895CF933D
:1002D000DF93009709F450C0EC0122971B821A8229
:1002E000A091E604B091E704109709F140E050E0D6
:1002F000AC17BD0708F1BB83AA83FE0121913191A0
:10030000E20FF31FAE17BF0779F48D919C911197FF
:10031000280F391F2E5F3F4F3983288312968D9106
:100320009C9113979B838A834115510571F4D09357
:10033000E704C093E60420C012968D919C91139718
:10034000AD01009711F0DC01D3CFFA01D383C28352
:1003500021913191E20FF31FCE17DF0769F48881F5
:100360009981280F391F2E5F3F4FFA013183208377
:100370008A819B8193838283DF91CF910895DC01F1
:1003800001C06D9341505040E0F7089581E08093A3
:1003900065026093600210926302109264020895F5
:1003A00090915E0280915F02981710F080E00895AE
:1003B000E0915C02F0915D02E90FF11D80819F5F89
:1003C00090935E0208950895DF93CF930F92CDB777
:1003D000DEB76983809165028823A9F08091640269
:1003E0008032B0F480916302E0916102F091620288
:1003F000E80FF11D6083809163028F5F8093630239
:100400008093640205C0CE01019661E00E94CF0294
:100410000F90CF91DF9108950E94E40108956091BB
:10042000610270916202809160024091640221E059
:100430000E948A0210926302109264021092650276
:100440000895862F60915C0270915D02413208F040
:1004500040E20E94520210925E0280935F02089571
:100460000E942102089580E290E061E070E00E9425
:10047000A10080935C0290935D0210925E02109244
:100480005F0280E290E061E070E00E94A100809352
:1004900061029093620210926302109264020E94C1
:1004A00072040895982F413210F040E031C08091DD
:1004B00067028823E1F781E0809367028FEF8093E2
:1004C000780210926F024150409370024F5F990F73
:1004D00091609093680285EE8093BC0080916702E2
:1004E0008130E1F380916F02841710F440916F0224
:1004F000A0916D02B0916E0220E030E007C0FB01D8
:10050000E20FF31F8D9180832F5F3F4F2417B8F3C5
:10051000842F08951F93582F122F413210F081E03D
:100520003CC0809167028823E1F782E080936702F4
:100530008FEF8093780210926F0240937002A09127
:100540006D02B0916E02FB0102C081918D938E2FDE
:10055000861B8417D0F3852F90E0880F991F809316
:10056000680285EE8093BC00112321F08091670220
:100570008230E1F3809178028F3F11F480E00DC06A
:1005800080917802803211F482E007C08091780275
:10059000803311F084E001C083E01F910895482F5B
:1005A000613210F081E0089580916702843011F08B
:1005B00082E0089560937402A0917102B09172027A
:1005C000842F9C01F90102C081918D938E2F841B91
:1005D0008617D0F380E008951F920F920FB60F9206
:1005E0000BB60F9211242F933F934F935F936F930A
:1005F0007F938F939F93AF93BF93EF93FF938091DC
:10060000B90090E0887F90708036910509F4E2C0CF
:1006100081369105CCF58832910509F47BC0893289
:100620009105B4F48031910509F46FC081319105D1
:100630003CF4009709F438C1089709F040C165C03F
:100640008831910509F466C0809709F038C17FC0F0
:100650008034910509F4A3C08134910544F48033BA
:10066000910509F47FC0C89709F029C186C080357B
:10067000910509F486C08835910509F495C0883440
:10068000910509F01CC19EC08839910509F404C187
:1006900089399105ECF48837910509F49BC08937B5
:1006A00091054CF48836910509F494C08037910582
:1006B00009F005C18FC08838910509F4EDC0803973
:1006C000910509F48DC08038910509F0F8C088C003
:1006D000803B910509F4B2C0813B91054CF4803A0E
:1006E000910509F491C0883A910509F0E8C0A6C0C7
:1006F000803C910509F4D4C0883C910509F4D0C030
:10070000883B910509F0DBC0B1C0809168028093FD
:10071000BB00C0C090916F0280917002981778F46E
:1007200090916F02E0916D02F0916E02E90FF11D60
:1007300080818093BB009F5F90936F02ABC085ED7B
:100740008093BC008091BC0084FDFCCFB6C080E2E9
:100750008093780285ED8093BC008091BC0084FD7D
:10076000FCCFABC080E38093780285ED8093BC0022
:100770008091BC0084FDFCCFA0C088E38093780208
:100780008FC080916F029091BB00E0916D02F0915B
:100790006E02E80FF11D90838F5F80936F0290913E
:1007A0006F028091700274C080916F029091BB00C3
:1007B000E0916D02F0916E02E80FF11D90838F5F62
:1007C00080936F0285ED8093BC008091BC0084FD16
:1007D000FCCF73C083E080936702109277025AC007
:1007E00080917702803208F057C080917702909113
:1007F000BB00E0917502F0917602E80FF11D908345
:100800008F5F8093770246C080917702803248F4F0
:1008100080917702E0917502F0917602E80FF11D68
:10082000108260917702E0916B02F0916C028091EE
:1008300075029091760270E0099532C084E0809351
:1008400067021092730210927402E0916902F091B3
:100850006A02099580917402882341F481E08093B3
:100860007402E0917102F091720210829091730211
:10087000E0917102F0917202E90FF11D8081809385
:10088000BB009F5F909373029091730280917402FA
:10089000981710F485EC01C085E88093BC000FC068
:1008A00085EC8093BC0009C01092780285ED80939E
:1008B000BC008091BC0084FDFCCF10926702FF91C8
:1008C000EF91BF91AF919F918F917F916F915F91C8
:1008D0004F913F912F910F900BBE0F900FBE0F9035
:1008E0001F90189510926702589A599AE9EBF0E018
:1008F00080818E7F808380818D7F808388E4809358
:10090000B80085E48093BC0080E290E061E070E094
:100910000E94A10080936D0290936E0280E290E0AD
:1009200061E070E00E94A1008093710290937202D6
:1009300080E290E061E070E00E94A1008093750287
:10094000909376020895EF92FF920F931F9386E69D
:10095000E82E82E0F82EC7010E94330208E914E075
:10096000C80140E855E260E070E00E940608C80156
:1009700060E072E00E94550AC8014DE050E060E07E
:1009800070E020E030E00E942E0BC70168E670E0C6
:100990000E94C6011F910F91FF90EF9008952F9232
:1009A0003F924F925F926F927F928F929F92AF92FF
:1009B000BF92CF92DF92EF92FF920F931F93B6E612
:1009C0008B2EB2E09B2EC40168E670E00E94C60147
:1009D000C40160E070E00E940C02C4010E940F029A
:1009E000C40168E670E047E050E00E943002C401B4
:1009F0000E94D001482EAFE7CA2EC822C4010E942F
:100A0000D001A82EC4010E94D001D82EFFE32F2EC2
:100A10002822C4010E94D001C4010E94D001682E86
:100A2000C4010E94D001E82EC4010E94D001282FE9
:100A300022952F704AE0249F900111248F70820F1D
:100A400090E02E2D22952F70249F900111245FE0BD
:100A5000E522E20EFF24E5E0EE0CFF1CEA95E1F74B
:100A6000262D22952F70249F900111246522620E5D
:100A70007724E628F7284496982F8827990FE82AA4
:100A8000F92A0027F7FC0095102F8701FF24EE2498
:100A90008A2D82958F70849FC0011124A522A80EF3
:100AA000BB2435E0AA0CBB1C3A95E1F7C2942FE0B9
:100AB000C222C49EC00111244522480E5524A428F8
:100AC000B52822949FE02922249E10011124D522CA
:100AD000D20C9D2D990F990F990F80E0A82AB92A61
:100AE000CC24DD24AE28BF28C02AD12AB501C601F6
:100AF0001F910F91FF90EF90DF90CF90BF90AF903C
:100B00009F908F907F906F905F904F903F902F902D
:100B10000895CF93DF9388E994E00E94FF0888232B
:100B200009F4BDC088E994E00E94130990937E0205
:100B300080937D02C19709F0B2C00E94CF046093F8
:100B4000790270937A0280937B0290937C0288E909
:100B500094E064E072E00E94550A60913202709164
:100B6000330288E994E00E94260B88E994E06DE066
:100B700072E00E94550A88E994E063E172E00E9405
:100B8000550A4091790250917A0260917B027091EE
:100B90007C0288E994E020E130E00E942E0B88E995
:100BA00094E04DE050E060E070E020E030E00E9432
:100BB0002E0BC4E3D2E045C088E994E066E172E020
:100BC0000E94550AFE0101900020E9F73197E45395
:100BD000F24088E994E0BF010E94F90A88E994E0B4
:100BE0004DE050E060E070E020E030E00E942E0B2D
:100BF00088E994E064E372E00E94550A88E994E091
:100C00004DE050E060E070E020E030E00E942E0B0C
:100C100088E994E06BE172E00E94550A88E994E06B
:100C20004DE050E060E070E020E030E00E942E0BEC
:100C300080914F02909150020196909350028093C0
:100C40004F0280914F029091500205970CF4B4CF5F
:100C500088E994E06EE172E00E94550A60913202E8
:100C60007091330288E994E00E94260B88E994E0B1
:100C700067E272E00E94550A88E994E04DE050E096
:100C800060E070E020E030E00E942E0B80913202A4
:100C90009091330201969093330280933202DF9158
:100CA000CF9108950E94A1060E94A3040E94890585
:100CB000FDCF1F920F920FB60F9211242F933F93E7
:100CC0008F939F93AF93BF938091830290918402FF
:100CD000A0918502B0918602309187020196A11DF4
:100CE000B11D232F2D5F2D3720F02D570196A11D0B
:100CF000B11D209387028093830290938402A09376
:100D00008502B093860280917F0290918002A0912B
:100D10008102B09182020196A11DB11D80937F02D4
:100D200090938002A0938102B0938202BF91AF9111
:100D30009F918F913F912F910F900FBE0F901F9019
:100D40001895789484B5826084BD84B5816084BD33
:100D500085B5826085BD85B5816085BDEEE6F0E034
:100D6000808181608083E1E8F0E08081826080831F
:100D7000808181608083E0E8F0E080818160808311
:100D8000E1EBF0E0808184608083E0EBF0E0808143
:100D900081608083E1E9F0E08081826080838081EE
:100DA00081608083E1EAF0E08081826080838081DD
:100DB00081608083E1E2F1E08081826080838081D4
:100DC00081608083E0E9F0E0808181608083E0EAF7
:100DD000F0E0808181608083E0E2F1E080818160E9
:100DE0008083EAE7F0E08081846080838081826094
:100DF000808380818160808380818068808310927D
:100E0000C10008951F920F920FB60F920BB60F926A
:100E100011242F933F934F935F936F937F938F93FF
:100E20009F93AF93BF93EF93FF934091C600E091E0
:100E30000803F0910903CF01019660E870E00E9479
:100E4000620B9C0180910A0390910B0328173907CC
:100E500039F0E857FD4F408330930903209308038E
:100E6000FF91EF91BF91AF919F918F917F916F9182
:100E70005F914F913F912F910F900BBE0F900FBE3E
:100E80000F901F9018951F920F920FB60F920BB6EE
:100E90000F9211242F933F934F935F936F937F9300
:100EA0008F939F93AF93BF93EF93FF934091CE00A7
:100EB000E0918C03F0918D03CF01019660E870E022
:100EC0000E94620B9C0180918E0390918F032817E2
:100ED000390739F0E45FFC4F408330938D03209352
:100EE0008C03FF91EF91BF91AF919F918F917F9173
:100EF0006F915F914F913F912F910F900BBE0F908B
:100F00000FBE0F901F9018951F920F920FB60F9261
:100F10000BB60F9211242F933F934F935F936F93D0
:100F20007F938F939F93AF93BF93EF93FF934091E2
:100F3000D600E0911004F0911104CF01019660E811
:100F400070E00E94620B9C01809112049091130446
:100F50002817390739F0E057FC4F408330931104CC
:100F600020931004FF91EF91BF91AF919F918F91CA
:100F70007F916F915F914F913F912F910F900BBE99
:100F80000F900FBE0F901F9018951F920F920FB6E3
:100F90000F920BB60F9211242F933F934F935F93B1
:100FA0006F937F938F939F93AF93BF93EF93FF9331
:100FB00040913601E0919404F0919504CF0101969F
:100FC00060E870E00E94620B9C0180919604909111
:100FD00097042817390739F0EC5EFB4F40833093B4
:100FE000950420939404FF91EF91BF91AF919F914D
:100FF0008F917F916F915F914F913F912F910F90C2
:101000000BBE0F900FBE0F901F9018955F926F92BE
:101010007F928F929F92AF92BF92CF92DF92EF9288
:10102000FF920F931F93CF93DF93EC013A014B0193
:10103000413482E458078FE0680780E078070CF0BD
:101040007FC060E874E88EE190E0A40193010E9403
:10105000970B2150304040405040CA01B90122E076
:1010600030E040E050E00E94970B59016A01A60170
:101070009501209530954095509594E0220F331FAF
:10108000441F551F9A95D1F760E074E284EF90E019
:101090000E94970BCA01B9012FEF30E040E050E009
:1010A0000E94430BA40193010E94970BC901815038
:1010B0009F4F181619061CF4522E5A9403C055243B
:1010C0005394521A60E079E08DE390E0A40193011B
:1010D0000E94970B2150304040405040CA01B90156
:1010E00022E030E040E050E00E94970B20953095E0
:1010F0004095509583E0220F331F441F551F8A955A
:10110000D1F760E074E284EF90E00E94970BCA018F
:10111000B9012FEF30E040E050E00E94430BA40102
:1011200093010E94970BC90181509F4F1816190611
:101130001CF4822F815002C081E0821B851500F5CE
:10114000E885F98581E090E00A8802C0880F991F40
:101150000A94E2F7808360E079E08DE390E0A401F7
:1011600093010E94970B2150304040405040CA01EB
:10117000B90122E030E040E050E00E94970B04C04B
:10118000E885F98510829501EC81FD813083EE813F
:10119000FF812083EA85FB85208141E050E0CA0180
:1011A0000E8402C0880F991F0A94E2F7282B20832F
:1011B000EA85FB852081CA010F8402C0880F991F30
:1011C0000A94E2F7282B2083EA85FB858081088832
:1011D00002C0440F551F0A94E2F7842B8083DF91ED
:1011E000CF911F910F91FF90EF90DF90CF90BF9024
:1011F000AF909F908F907F906F905F900895DC01EB
:101200001296ED91FC911397E058FF4F81919191C7
:1012100080589F4F20813181821B930B60E870E0E2
:101220000E94620B0895CF93DF93DC011296ED913B
:10123000FC911397EF01CE57DF4F48815981E05859
:10124000FF4F80819181E058F0408417950719F491
:101250002FEF3FEF0CC0E40FF51F2081CA0101966C
:1012600060E870E00E94620B9983888330E0C901D6
:10127000DF91CF910895FC01A085B18521898C91E2
:1012800090E0022E02C0959587950A94E2F780FFC0
:10129000F6CF0484F585E02D6083089525E532E0DE
:1012A000309399042093980488E892E090939B04EB
:1012B00080939A0485EC90E090939D0480939C0425
:1012C00084EC90E090939F0480939E0480EC90E0E7
:1012D0009093A1048093A00481EC90E09093A304E8
:1012E0008093A20486EC90E09093A5048093A404DC
:1012F000E4E0E093A60473E07093A70467E06093D2
:10130000A80455E05093A90441E04093AA04309307
:10131000AC042093AB048CE093E09093AE048093F4
:10132000AD048DEC90E09093B0048093AF048CEC0E
:1013300090E09093B2048093B10488EC90E0909395
:10134000B4048093B30489EC90E09093B604809346
:10135000B5048EEC90E09093B8048093B704E093CA
:10136000B9047093BA046093BB045093BC044093D7
:10137000BD043093BF042093BE0480E993E09093B2
:10138000C1048093C00485ED90E09093C3048093E2
:10139000C20484ED90E09093C5048093C40480ED72
:1013A00090E09093C7048093C60481ED90E0909301
:1013B000C9048093C80486ED90E09093CB04809399
:1013C000CA04E093CC047093CD046093CE04509390
:1013D000CF044093D0043093D2042093D10484E10D
:1013E00094E09093D4048093D30485E391E09093A8
:1013F000D6048093D50484E391E09093D80480933D
:10140000D70480E391E09093DA048093D90481E3D8
:1014100091E09093DC048093DB0486E391E0909369
:10142000DE048093DD04E093DF047093E0046093B6
:10143000E1045093E2044093E30408950F931F9353
:10144000CF93DF938C01EB0109C02196D801ED9178
:10145000FC910190F081E02DC80109956881662317
:10146000A1F7DF91CF911F910F910895EF92FF9215
:101470000F931F93CF93DF938C017B01EA010CC084
:10148000D7016D917D01D801ED91FC910190F08122
:10149000E02DC80109952197209791F7DF91CF9111
:1014A0001F910F91FF90EF900895DC01ED91FC9159
:1014B0000280F381E02D099508952F923F924F927B
:1014C0005F926F927F928F929F92AF92BF92CF92D4
:1014D000DF92EF92FF920F931F93DF93CF93CDB7DD
:1014E000DEB7A0970FB6F894DEBF0FBECDBF1C01CC
:1014F0006A017B01411551056105710549F4DC0163
:10150000ED91FC910190F081E02D60E3099554C0CC
:10151000882499245401422E55246624772401E01E
:1015200010E00C0F1D1F080D191DC701B601A30106
:1015300092010E94750BF80160830894811C911C34
:10154000A11CB11CC701B601A30192010E94750B39
:10155000C901DA016C017D01C114D104E104F10477
:10156000F1F681E0E82EF12CEC0EFD1EE80CF91CE2
:101570003E010894611C711CD501C4010197A109A9
:10158000B1096C01C818D90814C0F601EE0DFF1D91
:1015900060816A3010F4605D01C0695CD101ED9139
:1015A000FC910190F081E02DC10109950894E108BA
:1015B000F1086E147F0449F7A0960FB6F894DEBFC9
:1015C0000FBECDBFCF91DF911F910F91FF90EF9094
:1015D000DF90CF90BF90AF909F908F907F906F9053
:1015E0005F904F903F902F9008952AE00E945D0AEF
:1015F0000895AB0160E070E00E94F50A0895EF9253
:10160000FF920F931F93CF93DF93EC017A018B012D
:1016100077FF0FC0E881F9810190F081E02D6DE244
:10162000099510950095F094E094E11CF11C011DC2
:10163000111DCE01B801A7012AE00E945D0ADF91C9
:10164000CF911F910F91FF90EF900895AB01662706
:1016500057FD6095762F0E94FF0A0895DC01211541
:10166000310541F4ED91FC910190F081E02D642F62
:10167000099508952A30310519F40E94FF0A08954A
:101680000E945D0A0895629FD001739FF001829FBE
:10169000E00DF11D649FE00DF11D929FF00D839F01
:1016A000F00D749FF00D659FF00D9927729FB00D9E
:1016B000E11DF91F639FB00DE11DF91FBD01CF01B1
:1016C0001124089597FB092E07260AD077FD04D030
:1016D00049D006D000201AF4709561957F4F089587
:1016E000F6F7909581959F4F0895A1E21A2EAA1BB7
:1016F000BB1BFD010DC0AA1FBB1FEE1FFF1FA217C2
:10170000B307E407F50720F0A21BB30BE40BF50BBE
:10171000661F771F881F991F1A9469F76095709547
:10172000809590959B01AC01BD01CF01089597FB79
:10173000092E05260ED057FD04D0D7DF0AD0001C95
:1017400038F450954095309521953F4F4F4F5F4F5E
:101750000895F6F790958095709561957F4F8F4F1E
:101760009F4F0895AA1BBB1B51E107C0AA1FBB1FB7
:10177000A617B70710F0A61BB70B881F991F5A951D
:10178000A9F780959095BC01CD010895EE0FFF1F3C
:0C1790000590F491E02D0994F894FFCF2F
:10179C00495041004F5057204C4F4725002E54586C
:1017AC0054200030780057524620002F6E00434CD6
:1017BC0046204C4F4725002E545854002000E80476
:1017CC00000001006162636465666768696A6B6C3E
:1017DC006D6E6F707172737475767778797A0001AB
:0C17EC0000000000003B091E0A360A0045
:00000001FF
