:100000000C9474000C949F000C949F000C949F001F
:100010000C949F000C949F000C949F000C949F00E4
:100020000C949F000C949F000C949F000C949F00D4
:100030000C949F000C949F000C949F000C949F00C4
:100040000C949F000C949F000C949F000C949F00B4
:100050000C949F000C949F000C949F000C94C90674
:100060000C949F000C949C070C949F000C949F0090
:100070000C949F000C949F000C949F000C949F0084
:100080000C949F000C949F000C949F000C949F0074
:100090000C94DD070C949F000C949F000C94EC02D0
:1000A0000C949F000C949F000C949F000C949F0054
:1000B0000C949F000C949F000C949F000C949F0044
:1000C0000C949F000C949F000C949F000C941E08AD
:1000D0000C949F000C949F000C945F080C949F005C
:1000E0000C949F00E301E80911241FBECFEFD1E279
:1000F000DEBFCDBF12E0A0E0B2E0E4E1F9E100E054
:100100000BBF02C007900D92AE37B107D9F71BBEE7
:1001100015E0AEE7B2E001C01D92AC30B107E1F7E7
:1001200010E0C8EED0E004C02297FE010E94840CCB
:10013000C43ED107C9F70E94C2060C94880C0C94E7
:1001400000000F931F93CF93DF93689F8001699FF7
:10015000100D789F100D1124C8010E94BD00EC0104
:10016000009729F060E070E0A8010E94BF01CE0175
:10017000DF91CF911F910F910895CF93DF93BC0131
:100180008230910510F462E070E0A0910A05B09110
:100190000B05ED01E0E0F0E040E050E021C0888197
:1001A00099818617970769F48A819B81309719F0A6
:1001B0009383828304C090930B0580930A05FE010C
:1001C00034C06817790738F44115510519F08417C0
:1001D000950708F4AC01FE018A819B819C01E9012D
:1001E0002097E9F641155105A9F1CA01861B970B25
:1001F000049708F4BA01E0E0F0E02AC08D919C91E8
:10020000119784179507F9F46417750781F412960E
:100210008D919C911397309719F09383828304C03A
:1002200090930B0580930A05FD0132964CC0CA01DC
:10023000861B970BFD01E80FF91F619371930297DD
:100240008D939C9340C0FD01828193819C01D901D3
:100250001097A1F68091080590910905892B41F42A
:1002600080912B0290912C029093090580930805B0
:1002700040912D0250912E024115510541F44DB788
:100280005EB78091290290912A02481B590B209158
:10029000080530910905CA01821B930B8617970741
:1002A00080F0AB014E5F5F4F8417950750F0420F0F
:1002B000531F5093090540930805F9016193719309
:1002C00002C0E0E0F0E0CF01DF91CF910895CF933D
:1002D000DF93009709F450C0EC0122971B821A8229
:1002E000A0910A05B0910B05109709F140E050E08C
:1002F000AC17BD0708F1BB83AA83FE0121913191A0
:10030000E20FF31FAE17BF0779F48D919C911197FF
:10031000280F391F2E5F3F4F3983288312968D9106
:100320009C9113979B838A834115510571F4D09357
:100330000B05C0930A0520C012968D919C911397CE
:10034000AD01009711F0DC01D3CFFA01D383C28352
:1003500021913191E20FF31FCE17DF0769F48881F5
:100360009981280F391F2E5F3F4FFA013183208377
:100370008A819B8193838283DF91CF910895DC01F1
:1003800001C06D9341505040E0F7089581E08093A3
:10039000870260938202109285021092860208956D
:1003A0009091800280918102981710F080E008956A
:1003B000E0917E02F0917F02E90FF11D80819F5F45
:1003C0009093800208950895DF93CF930F92CDB755
:1003D000DEB76983809187028823A9F08091860225
:1003E0008032B0F480918502E0918302F091840222
:1003F000E80FF11D6083809185028F5F80938502F5
:100400008093860205C0CE01019661E00E94CF0272
:100410000F90CF91DF9108950E94E40108956091BB
:10042000830270918402809182024091860221E0D1
:100430000E948A0210928502109286021092870210
:100440000895862F60917E0270917F02413208F0FC
:1004500040E20E945202109280028093810208952D
:100460000E942102089580E290E061E070E00E9425
:10047000A10080937E0290937F02109280021092DE
:10048000810280E290E061E070E00E94A100809330
:1004900083029093840210928502109286020E9439
:1004A00072040895982F413210F040E031C08091DD
:1004B00089028823E1F781E0809389028FEF80939E
:1004C0009A02109291024150409392024F5F990F0D
:1004D000916090938A0285EE8093BC00809189029E
:1004E0008130E1F380919102841710F440919102E0
:1004F000A0918F02B091900220E030E007C0FB0194
:10050000E20FF31F8D9180832F5F3F4F2417B8F3C5
:10051000842F08951F93582F122F413210F081E03D
:100520003CC0809189028823E1F782E080938902B0
:100530008FEF80939A021092910240939202A091C1
:100540008F02B0919002FB0102C081918D938E2F9A
:10055000861B8417D0F3852F90E0880F991F809316
:100560008A0285EE8093BC00112321F080918902DC
:100570008230E1F380919A028F3F11F480E00DC048
:1005800080919A02803211F482E007C080919A0231
:10059000803311F084E001C083E01F910895482F5B
:1005A000613210F081E0089580918902843011F069
:1005B00082E0089560939602A0919302B091940214
:1005C000842F9C01F90102C081918D938E2F841B91
:1005D0008617D0F380E008951F920F920FB60F9206
:1005E0000BB60F9211242F933F934F935F936F930A
:1005F0007F938F939F93AF93BF93EF93FF938091DC
:10060000B90090E0887F90708036910509F4E2C0CF
:1006100081369105CCF58832910509F47BC0893289
:100620009105B4F48031910509F46FC081319105D1
:100630003CF4009709F438C1089709F040C165C03F
:100640008831910509F466C0809709F038C17FC0F0
:100650008034910509F4A3C08134910544F48033BA
:10066000910509F47FC0C89709F029C186C080357B
:10067000910509F486C08835910509F495C0883440
:10068000910509F01CC19EC08839910509F404C187
:1006900089399105ECF48837910509F49BC08937B5
:1006A00091054CF48836910509F494C08037910582
:1006B00009F005C18FC08838910509F4EDC0803973
:1006C000910509F48DC08038910509F0F8C088C003
:1006D000803B910509F4B2C0813B91054CF4803A0E
:1006E000910509F491C0883A910509F0E8C0A6C0C7
:1006F000803C910509F4D4C0883C910509F4D0C030
:10070000883B910509F0DBC0B1C080918A028093DB
:10071000BB00C0C09091910280919202981778F42A
:1007200090919102E0918F02F0919002E90FF11DFA
:1007300080818093BB009F5F90939102ABC085ED59
:100740008093BC008091BC0084FDFCCFB6C080E2E9
:1007500080939A0285ED8093BC008091BC0084FD5B
:10076000FCCFABC080E380939A0285ED8093BC0000
:100770008091BC0084FDFCCFA0C088E380939A02E6
:100780008FC0809191029091BB00E0918F02F09117
:100790009002E80FF11D90838F5F809391029091FA
:1007A00091028091920274C0809191029091BB005D
:1007B000E0918F02F0919002E80FF11D90838F5F1E
:1007C0008093910285ED8093BC008091BC0084FDF4
:1007D000FCCF73C083E080938902109299025AC0C3
:1007E00080919902803208F057C0809199029091CF
:1007F000BB00E0919702F0919802E80FF11D908301
:100800008F5F8093990246C080919902803248F4AC
:1008100080919902E0919702F0919802E80FF11D02
:10082000108260919902E0918D02F0918E02809188
:1008300097029091980270E0099532C084E080930D
:1008400089021092950210929602E0918B02F0912B
:100850008C02099580919602882341F481E080936F
:100860009602E0919302F091940210829091950289
:10087000E0919302F0919402E90FF11D8081809341
:10088000BB009F5F90939502909195028091960294
:10089000981710F485EC01C085E88093BC000FC068
:1008A00085EC8093BC0009C010929A0285ED80937C
:1008B000BC008091BC0084FDFCCF10928902FF91A6
:1008C000EF91BF91AF919F918F917F916F915F91C8
:1008D0004F913F912F910F900BBE0F900FBE0F9035
:1008E0001F90189510928902589A599AE9EBF0E0F6
:1008F00080818E7F808380818D7F808388E4809358
:10090000B80085E48093BC0080E290E061E070E094
:100910000E94A10080938F029093900280E290E069
:1009200061E070E00E94A100809393029093940292
:1009300080E290E061E070E00E94A1008093970265
:10094000909398020895EF92FF920F931F9388E877
:10095000E82E82E0F82EC7010E9433020CEB14E06F
:10096000C80140E855E260E070E00E94A00885EF11
:1009700094E040E855E260E070E00E94A00882EE5A
:1009800094E040E855E260E070E00E94A008C801F1
:1009900060E072E00E94EF0AC8014DE050E060E0C4
:1009A00070E020E030E00E94EA0BC70168E670E0EA
:1009B0000E94C6011F910F91FF90EF9008952F9212
:1009C0003F924F925F926F927F928F929F92AF92DF
:1009D000BF92CF92DF92EF92FF920F931F93B8E8EE
:1009E0008B2EB2E09B2EC40168E670E00E94C60127
:1009F000C40160E070E00E940C02C4010E940F027A
:100A0000C40168E670E047E050E00E943002C40193
:100A10000E94D001482EAFE7CA2EC822C4010E940E
:100A2000D001A82EC4010E94D001D82EFFE32F2EA2
:100A30002822C4010E94D001C4010E94D001682E66
:100A4000C4010E94D001E82EC4010E94D001282FC9
:100A500022952F704AE0249F900111248F70820FFD
:100A600090E02E2D22952F70249F900111245FE09D
:100A7000E522E20EFF24E5E0EE0CFF1CEA95E1F72B
:100A8000262D22952F70249F900111246522620E3D
:100A90007724E628F7284496982F8827990FE82A84
:100AA000F92A0027F7FC0095102F8701FF24EE2478
:100AB0008A2D82958F70849FC0011124A522A80ED3
:100AC000BB2435E0AA0CBB1C3A95E1F7C2942FE099
:100AD000C222C49EC00111244522480E5524A428D8
:100AE000B52822949FE02922249E10011124D522AA
:100AF000D20C9D2D990F990F990F80E0A82AB92A41
:100B0000CC24DD24AE28BF28C02AD12AB501C601D5
:100B10001F910F91FF90EF90DF90CF90BF90AF901B
:100B20009F908F907F906F905F904F903F902F900D
:100B30000895EF92FF920F931F93CF93DF9385EF6A
:100B400094E00E949909882309F415C185EF94E087
:100B50000E94AD0981E390E09093A00280939F02F0
:100B600011E0E12EF12C01E312E0FEC082EE94E0F0
:100B70000E94AD092196C932D105C1F70E94DF0458
:100B800060939B0270939C0280939D0290939E02BF
:100B90008CEB94E064E072E00E94EF0A60912F0217
:100BA000709130028CEB94E00E94E20B8CEB94E0AD
:100BB0006DE072E00E94EF0A8CEB94E063E172E07A
:100BC0000E94EF0A40919B0250919C0260919D020D
:100BD00070919E028CEB94E020E130E00E94EA0BE1
:100BE0008CEB94E04DE050E060E070E020E030E01D
:100BF0000E94EA0B68EE73E080E090E00E9411072B
:100C0000C1E0D0E08CEB94E066E172E00E94EF0A74
:100C1000F80101900020E9F73197E153F2408CEBA5
:100C200094E0BF010E94B50B8CEB94E04DE050E0E6
:100C300060E070E020E030E00E94EA0B8CEB94E092
:100C400061E372E00E940E0B8CEB94E04DE050E00B
:100C500060E070E020E030E00E94EA0B2196C430B2
:100C6000D10581F668EE73E080E090E00E94110704
:100C70008CEB94E06BE172E00E94EF0A60912F022E
:100C8000709130028CEB94E00E94E20B8CEB94E0CC
:100C900064E272E00E94EF0A8CEB94E04DE050E0D9
:100CA00060E070E020E030E00E94EA0B80912F02CB
:100CB0009091300201969093300280932F028091A0
:100CC000A1029091A20201969093A2028093A102A8
:100CD00068EE73E080E090E00E941107C1E0D0E090
:100CE000F80101900020E9F73197E153F24085EFD8
:100CF00094E0BF010E94B50B85EF94E04DE050E019
:100D000060E070E020E030E00E94EA0B85EF94E0C4
:100D100061E372E00E94EF0A85EF94E04DE050E05D
:100D200060E070E020E030E00E94EA0B2196C932DA
:100D3000D105B1F685EF94E00E949909882371F0FE
:100D400085EF94E00E94AD099093A00280939F02EA
:100D5000C29721F480E090E00E94880C60EA7BEB6F
:100D60008DE090E00E941107F0927202E092710211
:100D7000C1E0D0E0FBCEDF91CF911F910F91FF90AA
:100D8000EF9008950E943B070E94A3040E949905DA
:100D9000FDCF1F920F920FB60F9211242F933F9306
:100DA0008F939F93AF93BF938091A7029091A802D6
:100DB000A091A902B091AA023091AB020196A11DA7
:100DC000B11D232F2D5F2D3720F02D570196A11D2A
:100DD000B11D2093AB028093A7029093A802A09329
:100DE000A902B093AA028091A3029091A402A091BB
:100DF000A502B091A6020196A11DB11D8093A30288
:100E00009093A402A093A502B093A602BF91AF91C4
:100E10009F918F913F912F910F900FBE0F901F9038
:100E20001895EF92FF920F931F937B018C018FB760
:100E3000F8944091A7025091A8026091A902709184
:100E4000AA028FBF2FB7F8948091A7029091A802B1
:100E5000A091A902B091AA022FBF841B950BA60BEB
:100E6000B70BE816F9060A071B0760F71F910F91E9
:100E7000FF90EF900895789484B5826084BD84B526
:100E8000816084BD85B5826085BD85B5816085BD85
:100E9000EEE6F0E0808181608083E1E8F0E080812F
:100EA00082608083808181608083E0E8F0E08081DF
:100EB00081608083E1EBF0E0808184608083E0EBFF
:100EC000F0E0808181608083E1E9F0E080818260F0
:100ED0008083808181608083E1EAF0E080818260AC
:100EE0008083808181608083E1E2F1E080818260A3
:100EF0008083808181608083E0E9F0E0808181608F
:100F00008083E0EAF0E0808181608083E0E2F1E0CC
:100F1000808181608083EAE7F0E080818460808363
:100F2000808182608083808181608083808180680D
:100F300080831092C10008951F920F920FB60F92F6
:100F40000BB60F9211242F933F934F935F936F93A0
:100F50007F938F939F93AF93BF93EF93FF934091B2
:100F6000C600E0912C03F0912D03CF01019660E8BB
:100F700070E00E941E0C9C0180912E0390912F0323
:100F80002817390739F0E455FD4F408330932D037E
:100F900020932C03FF91EF91BF91AF919F918F917F
:100FA0007F916F915F914F913F912F910F900BBE69
:100FB0000F900FBE0F901F9018951F920F920FB6B3
:100FC0000F920BB60F9211242F933F934F935F9381
:100FD0006F937F938F939F93AF93BF93EF93FF9301
:100FE0004091CE00E091B003F091B103CF010196A2
:100FF00060E870E00E941E0C9C018091B203909109
:10100000B3032817390739F0E05DFC4F4083309374
:10101000B1032093B003FF91EF91BF91AF919F91E6
:101020008F917F916F915F914F913F912F910F9091
:101030000BBE0F900FBE0F901F9018951F920F922E
:101040000FB60F920BB60F9211242F933F934F932D
:101050005F936F937F938F939F93AF93BF93EF9320
:10106000FF934091D600E0913404F0913504CF0114
:10107000019660E870E00E941E0C9C01809136048D
:10108000909137042817390739F0EC54FC4F40830E
:101090003093350420933404FF91EF91BF91AF91C9
:1010A0009F918F917F916F915F914F913F912F9180
:1010B0000F900BBE0F900FBE0F901F9018951F92B0
:1010C0000F920FB60F920BB60F9211242F933F93EE
:1010D0004F935F936F937F938F939F93AF93BF9340
:1010E000EF93FF9340913601E091B804F091B90479
:1010F000CF01019660E870E00E941E0C9C01809177
:10110000BA049091BB042817390739F0E85CFB4F0B
:1011100040833093B9042093B804FF91EF91BF91BD
:10112000AF919F918F917F916F915F914F913F917F
:101130002F910F900BBE0F900FBE0F901F90189520
:101140005F926F927F928F929F92AF92BF92CF9257
:10115000DF92EF92FF920F931F93CF93DF93EC01F7
:101160003A014B01413482E458078FE0680780E080
:1011700078070CF07FC060E874E88EE190E0A4018D
:1011800093010E94530C2150304040405040CA010E
:10119000B90122E030E040E050E00E94530C5901D8
:1011A0006A01A6019501209530954095509594E0EF
:1011B000220F331F441F551F9A95D1F760E074E248
:1011C00084EF90E00E94530CCA01B9012FEF30E088
:1011D00040E050E00E94FF0BA40193010E94530CD9
:1011E000C90181509F4F181619061CF4522E5A94AB
:1011F00003C055245394521A60E079E08DE390E0E7
:10120000A40193010E94530C2150304040405040B3
:10121000CA01B90122E030E040E050E00E94530CE6
:10122000209530954095509583E0220F331F441F41
:10123000551F8A95D1F760E074E284EF90E00E9438
:10124000530CCA01B9012FEF30E040E050E00E949A
:10125000FF0BA40193010E94530CC90181509F4FC1
:10126000181619061CF4822F815002C081E0821BDF
:10127000851500F5E885F98581E090E00A8802C0CF
:10128000880F991F0A94E2F7808360E079E08DE38C
:1012900090E0A40193010E94530C21503040404043
:1012A0005040CA01B90122E030E040E050E00E9425
:1012B000530C04C0E885F98510829501EC81FD810D
:1012C0003083EE81FF812083EA85FB85208141E028
:1012D00050E0CA010E8402C0880F991F0A94E2F7F9
:1012E000282B2083EA85FB852081CA010F8402C058
:1012F000880F991F0A94E2F7282B2083EA85FB8543
:101300008081088802C0440F551F0A94E2F7842B9D
:101310008083DF91CF911F910F91FF90EF90DF902D
:10132000CF90BF90AF909F908F907F906F905F9085
:101330000895DC011296ED91FC911397E058FF4F50
:101340008191919180589F4F20813181821B930B15
:1013500060E870E00E941E0C0895CF93DF93DC01DB
:101360001296ED91FC911397EF01CE57DF4F488114
:101370005981E058FF4F80819181E058F0408417F7
:10138000950719F42FEF3FEF0CC0E40FF51F2081F4
:10139000CA01019660E870E00E941E0C9983888360
:1013A00030E0C901DF91CF910895FC01A085B1859E
:1013B00021898C9190E0022E02C0959587950A9420
:1013C000E2F780FFF6CF0484F585E02D6083089571
:1013D00027E732E03093BD042093BC048CEA92E00E
:1013E0009093BF048093BE0485EC90E09093C10479
:1013F0008093C00484EC90E09093C3048093C20473
:1014000080EC90E09093C5048093C40481EC90E05C
:101410009093C7048093C60486EC90E09093C9042F
:101420008093C804E4E0E093CA0473E07093CB04B3
:1014300067E06093CC0455E05093CD0441E04093C5
:10144000CE043093D0042093CF0480E393E09093B4
:10145000D2048093D1048DEC90E09093D4048093D7
:10146000D3048CEC90E09093D6048093D50488EC60
:1014700090E09093D8048093D70489EC90E0909307
:10148000DA048093D9048EEC90E09093DC0480938E
:10149000DB04E093DD047093DE046093DF0450937B
:1014A000E0044093E1043093E3042093E20484EBEE
:1014B00093E09093E5048093E40485ED90E09093AD
:1014C000E7048093E60484ED90E09093E904809330
:1014D000E80480ED90E09093EB048093EA0481EDC2
:1014E00090E09093ED048093EC0486ED90E090936F
:1014F000EF048093EE04E093F0047093F1046093A2
:10150000F2045093F3044093F4043093F6042093D0
:10151000F50488E394E09093F8048093F70485E35E
:1015200091E09093FA048093F90484E391E090931E
:10153000FC048093FB0480E391E09093FE0480938D
:10154000FD0481E391E0909300058093FF0486E31E
:1015500091E09093020580930105E0930305709359
:10156000040560930505509306054093070508950B
:101570000F931F93CF93DF938C01EB0109C021964A
:10158000D801ED91FC910190F081E02DC801099501
:1015900068816623A1F7DF91CF911F910F91089584
:1015A000EF92FF920F931F93CF93DF938C017B01F8
:1015B000EA010CC0D7016D917D01D801ED91FC913C
:1015C0000190F081E02DC80109952197209791F7AE
:1015D000DF91CF911F910F91FF90EF900895DC0163
:1015E000ED91FC910280F381E02D099508950F9310
:1015F0001F938C01DC01ED91FC910190F081E02DB5
:101600006DE00995D801ED91FC910190F081E02DFC
:10161000C8016AE009951F910F9108950F931F93D8
:101620008C010E94EF0AC8010E94F70A1F910F91D6
:1016300008952F923F924F925F926F927F928F9276
:101640009F92AF92BF92CF92DF92EF92FF920F9351
:101650001F93DF93CF93CDB7DEB7A0970FB6F89463
:10166000DEBF0FBECDBF1C016A017B0141155105D4
:101670006105710549F4DC01ED91FC910190F08167
:10168000E02D60E3099554C0882499245401422E2A
:1016900055246624772401E010E00C0F1D1F080D6F
:1016A000191DC701B601A30192010E94310CF80176
:1016B00060830894811C911CA11CB11CC701B60158
:1016C000A30192010E94310CC901DA016C017D0174
:1016D000C114D104E104F104F1F681E0E82EF12C0B
:1016E000EC0EFD1EE80CF91C3E010894611C711CF7
:1016F000D501C4010197A109B1096C01C818D90825
:1017000014C0F601EE0DFF1D60816A3010F4605DBB
:1017100001C0695CD101ED91FC910190F081E02D57
:10172000C10109950894E108F1086E147F0449F796
:10173000A0960FB6F894DEBF0FBECDBFCF91DF915C
:101740001F910F91FF90EF90DF90CF90BF90AF90DF
:101750009F908F907F906F905F904F903F902F90D1
:1017600008952AE00E94190B0895AB0160E070E033
:101770000E94B10B0895EF92FF920F931F93CF93A6
:10178000DF93EC017A018B0177FF0FC0E881F981CB
:101790000190F081E02D6DE2099510950095F0948F
:1017A000E094E11CF11C011D111DCE01B801A7013F
:1017B0002AE00E94190BDF91CF911F910F91FF90AA
:1017C000EF900895AB01662757FD6095762F0E9434
:1017D000BB0B0895DC012115310541F4ED91FC911D
:1017E0000190F081E02D642F099508952A3031058C
:1017F00019F40E94BB0B08950E94190B0895629F73
:10180000D001739FF001829FE00DF11D649FE00DF8
:10181000F11D929FF00D839FF00D749FF00D659F59
:10182000F00D9927729FB00DE11DF91F639FB00D58
:10183000E11DF91FBD01CF011124089597FB092E69
:1018400007260AD077FD04D049D006D000201AF42C
:10185000709561957F4F0895F6F7909581959F4F0C
:101860000895A1E21A2EAA1BBB1BFD010DC0AA1FE1
:10187000BB1FEE1FFF1FA217B307E407F50720F0F9
:10188000A21BB30BE40BF50B661F771F881F991F74
:101890001A9469F760957095809590959B01AC01BD
:1018A000BD01CF01089597FB092E05260ED057FDE7
:1018B00004D0D7DF0AD0001C38F4509540953095FD
:1018C00021953F4F4F4F5F4F0895F6F790958095C4
:1018D000709561957F4F8F4F9F4F0895AA1BBB1B3B
:1018E00051E107C0AA1FBB1FA617B70710F0A61B20
:1018F000B70B881F991F5A95A9F780959095BC0141
:10190000CD010895EE0FFF1F0590F491E02D09948D
:04191000F894FFCF79
:10191400495041004F5057204C4F4725002E5458F2
:101924005420003078005752462000434C46204C47
:101934004F4725002E5458540020000C0500000188
:10194400004C6F61642043757272656E74203D2093
:101954003720416D707347656E5F536174757320F2
:101964003D204F6666536F6C617220566F6C7461D4
:101974006765203D20343520566F6C7473456E6462
:0E19840000010000000000D509B80AD00A00DA
:040000050080027104
:00000001FF
